:020000040800F2
:10000000802B002059020008DD2D0008252D000856
:10001000D92D0008E902000859430008000000003B
:10002000000000000000000000000000CD410008BA
:10003000D30E000800000000F3010008F941000899
:1000400073020008730200087302000873020008BC
:1000500073020008730200087302000873020008AC
:10006000730200087302000873020008730200089C
:10007000730200087302000873020008730200088C
:10008000730200087302000873020008730200087C
:10009000ED020008730200087302000873020008F2
:1000A000730200087302000873020008730200085C
:1000B00073020008730200080000000073020008C9
:1000C000730200087302000873020008913E0008E2
:1000D000730200087302000873020008730200082C
:1000E0004511000873020008000000000000000035
:1000F0000000000000000000000000000000000000
:1001000000000000730200080000000073020008F5
:1001100073020008000000007302000800000000E5
:1001200073020008730200087302000873020008DB
:100130007302000873020008730200080000000048
:1001400073020008730200087302000873020008BB
:1001500073020008730200087302000873020008AB
:100160007302000873020008730200080000000018
:100170000000000073020008000000000000000002
:10018000730200087302000873020008730200087B
:1001900073020008DFF80CD000F094F80048004724
:1001A000F5480008802B0020EFF3108072B67047EE
:1001B00080F3108870471F484FF0FF010170002046
:1001C00080F309881C48016881F308881B480121D5
:1001D00001701B484FF08051016062B6FEE718487D
:1001E0004FF080510160704715484FF08051016019
:1001F000704772B6EFF3098028B1203880E8F00F1D
:1002000010490968086000B50F4880475DF804EBA5
:100210000E480F490A7802700A480E490A680260BF
:10022000106890E8F00F203080F309884EF0040E3B
:1002300062B6704722ED00E0BC0000209B00002069
:1002400004ED00E0A40000206D34000892000020BE
:1002500093000020AC000020064880470648004775
:10026000FEE7FEE7FEE7FEE7FEE7FEE7FEE7FEE766
:10027000FEE7FEE7A94200089501000840EA0103F5
:100280009B0703D009E008C9121F08C0042AFAD24C
:1002900003E011F8013B00F8013B521EF9D2704710
:1002A000D2B201E000F8012B491EFBD270470022B8
:1002B000F6E710B513460A4604461946FFF7F0FF65
:1002C000204610BD064C074D06E0E06840F00103F3
:1002D00094E8070098471034AC42F6D3FFF75EFF6E
:1002E000C84B0008E84B000800BFFEE710B5024805
:1002F00001F04AF910BD0000400900200FB470B5AC
:100300008AB00446169D049512A80FC88DE80F0008
:1003100006A80FA90EC904F013FB04EB041000EBB0
:100320008000254901EB8000B0F84E1104EB041069
:1003300000EB8000204A02EB8000B0F84E01401C28
:1003400004EB041202EB82021B4B03EB8202A2F8C5
:100350004E0104EB041000EB80001A4602EB800013
:10036000AC3000EB011006A94EC94EC004EB0410DE
:1003700000EB8000104901EB8000B0F84E010A212B
:1003800090FBF1F201FB120004EB041101EB81017F
:10039000094A02EB8101A1F84E0104EB041101EBC3
:1003A000810102EB8101D1F8500102F07BFE0AB01D
:1003B00070BC5DF814FB00009C09002010B58AB0E9
:1003C00004462948294908600021284801764176D9
:1003D00001218176C1760021017701214177002139
:1003E0008160C1604FF400310161C900416101F0D9
:1003F000CBFF1F490860084600684FF47A71B0FBD4
:10040000F1F0B0FBF4F00621B0FBF1F017494860C1
:10041000084601F0E3F908B100F0F4F80020059077
:100420000690012007900020009001900290039018
:100430000490012008900E20099069460B4800F0B6
:100440005FFF08B100F0DEF8084801F0A4FA08B137
:1004500000F0D8F80221054800F092FE08B100F043
:10046000D1F80AB010BD000000640040400900202F
:100470005400002000B587B000F0C6F8002000F05E
:10048000A5F8032000214FF48072184BCDE901320A
:10049000CDE9031006200346154A0090154802F0E6
:1004A00053FE06909DF8180020B906AA12A1062056
:1004B00002F050FF032000214FF48072114BCDE970
:1004C0000132CDE90310072003460F4A00900F4880
:1004D00002F03AFE06909DF8180020B906AA0CA179
:1004E000072002F037FF07B000BD0000F00A00202F
:1004F000EC0E0020C906000843616E20527820549B
:1005000061736B00F00E0020EC1200200D07000854
:1005100043414E205458205441534B0010B50446DB
:100520004FF484712046FFF7C2FE002002F01AFD4E
:10053000C4F8040110BD30B50246B2F80201B2F8A9
:100540000031984202D14FF0FF3030BDB2F80001C7
:1005500002EB001539CD81E83900B2F80001401CEA
:10056000A2F80001B2F80001C31700EB13731B11CE
:10057000A0EB0313A2F800310020E6E70FB470B53A
:1005800004460025B4F8020104EB001005A94EC989
:100590004EC004F580746088401C60806088C1177C
:1005A00000EB11710911A0EB0111618060882188B5
:1005B000A4F58074884200D16D1ED4F8040102F0C5
:1005C00071FD284670BC5DF814FB000010B50446B0
:1005D00004EB041101EB8101094A02EB81004FF4A5
:1005E000AA71FFF764FE002002F0BCFC04EB0411CA
:1005F00001EB8101024A02EB8101C1F8500110BDFB
:100600009C09002000BFFEE700B587B0142102A8B6
:10061000FFF74DFE00BF2048806D40F000701E497E
:1006200088650846806D00F00070019000BF00BF33
:1006300000BF0846C06C40F00100C8640846C06CAA
:1006400000F00100019000BF00BF8814029002205A
:10065000039003200590012004900920069002A930
:10066000C00601F0E7F94FF4006002900220039009
:1006700003200590012004900920069002A9C006DD
:1006800001F0D8F900220221142001F010FB1420FF
:1006900001F000FB07B000BD001002401FB5094883
:1006A000006810B101280AD104E09DE80F0002F0B3
:1006B0003BFB05E09DE80F0002F0AEFB00E000BF51
:1006C00000BF1FBD58000020002002F04BFC0C4969
:1006D0000860C820FFF772FE10E0102209490020D0
:1006E00000F00CFC044604F10A0018B90020064989
:1006F000086003E003480FC8FFF7D0FFEDE70000F4
:1007000064000020F81300205800002088B0114831
:10071000FFF704FF1CE00F4907AAD1F804014FF4CA
:100720007A6102F049FC9DF81C0088B903A90948C8
:10073000FFF701FF48B904200190069800900020BF
:1007400003A90EC903F00EFD02E000200249086073
:10075000E1E70000F01200205800002010B5044628
:10076000204604F00EF910BD2DE9F05F04464FF06D
:100770000009CA4625786079864931F8108060788A
:10078000401EC6B2042D01D0072D01D1012000E08A
:1007900000208346E07950B97F480068406940F402
:1007A00080007D49096848614FEAE80807E07A4817
:1007B0000068406920F48000774909684861207A20
:1007C00075490968087274480068406920F440302F
:1007D000714909684861704800684069217A4FF49E
:1007E000403202EA014108436B49096848616A489E
:1007F000006800214269042000F019FB424642F6DD
:1008000004012E2000F002FB304603F07FFF634816
:1008100000F0DDF86248405D624951F82020072170
:100820002B2000F004FB5E48405D5F490A5C0B2111
:100830002B2000F010FB5D4810F80B200B21282026
:1008400000F009FB5648405D594951F820200C2121
:10085000282000F0ECFAE079564901EB8000A179FC
:1008600030F811200221272000F0D0FA524830F849
:1008700016200421272000F0C9FAE07928B9642263
:100880000621272000F0C2FA17E0A07804280AD138
:1008900010220621272000F0B9FA10222621272055
:1008A00000F0D9FA09E020220621272000F0AEFA54
:1008B00028222621272000F0CEFA404800EB06101F
:1008C000E17850F821200821272000F0B0FA608953
:1008D00010B941F24100608162892021272000F097
:1008E00095FA37480C210268232000F0A0FA34481A
:1008F000001D30F816200421232000F087FAA0798B
:1009000050B1E0792F490A5C0021212000F0A3FAC0
:100910004FF003094FF0010A05F00F00F02101EA42
:100920000511084361784FF4402202EA81410843EF
:10093000910001EA095108434FF4003101EA4A41AC
:10094000084321794FF0F86202EA81510843617946
:10095000520102EAC16140EA01073A4600211F2024
:1009600000F065FAA078617808430004E17940EA74
:10097000413009490968C860074800680021C26819
:10098000082000F054FA422200210D2000F063FA02
:1009900000F01AB81C4A0008200000203400002093
:1009A000A0490008C0490008D8490008DE490008ED
:1009B000A8490008EC490008F8490008FC4900086B
:1009C000E0490008E849000830BCBDE8C09F10B508
:1009D000044622780B212A2000F03DFA00211E2037
:1009E000626800F024FA10BD70B500210E2000F0FE
:1009F000D2F8054600F075FA0446002211460E2092
:100A000000F015FA402200210D2000F024FA0A4AD5
:100A100000210F2000F00BFA03F059FF2A460021B5
:100A20000E2000F004FA204600F054FA002003499A
:100A30000968887670BD0000F8FF270420000020B8
:100A40002DE9F041044600250027002046490968A9
:100A500048744549096888764349096808834249CA
:100A60000968886240490968C8623F4909680863A3
:100A70003D490968486300F0AFF83C49884202D01C
:100A80008817BDE8F08100F09DF9002003F057FEC3
:100A900004220021242000F0DEF91E2003F0DAFEFB
:100AA00085B2280A304909684872042003F0D2FE52
:100AB0000746F8B260B1022212212D2000F0CBF9D6
:100AC00029480068008B40F4805027490968088352
:100AD000062003F0BFFE244909680860072003F0E0
:100AE000B9FE21490968486005F01F001E490968E0
:100AF00008741D480068007C18B910201A4909685C
:100B0000087419490968087C00F050F904F00100E4
:100B100050B103F08EFE14480068008B40F4006072
:100B20001149096808830DE00521362000F020F8FE
:100B300006464FF6FF50064032460521362000F0AB
:100B400065F900BF012003F0FAFD00220A212C20E4
:100B500000F081F90021042000F01DF80249096825
:100B6000486100208DE70000200000203001CADE2F
:100B7000F8B504460D460026A9B2A0B26B46022283
:100B800000F030F89DF800009DF8011000EB012006
:100B900086B23046F8BDF8B505460E460027B1B21C
:100BA000A8B26B46042200F01DF8032404E01DF8EF
:100BB000040000EB0727641E002CF8DA3846F8BD65
:100BC00038B504460D46A9B2A0B26B46012200F02A
:100BD00009F89DF8000038BD10B500210846FFF760
:100BE000DAFF10BD2DE9F84306460C461746984635
:100BF00000252CB9F2B228466D1C0DF800201BE030
:100C0000F0B240F0400228466D1C0DF800207F2C09
:100C100005DCE2B228466D1C0DF800200CE0E0B2C5
:100C200040F0800228466D1C0DF80020C4F3C71266
:100C300028466D1C0DF8002043463A466946284672
:100C400003F0B8F8BDE8F88370B504460D461646C3
:100C500023462A4631461120FFF7C4FF70BD70B508
:100C6000044604F0040008B903F031FE4FF4807527
:100C700004F0010008B145F400752A4600210D205A
:100C800000F0C4F804F00100A8B103210F20FFF721
:100C900097FF064606F0080068B1FFF7A5FE04F0CE
:100CA000020028B94FF4807200210D2000F0AEF848
:100CB0004FF0FF3070BD0020FCE710B5E0220321AB
:100CC000362000F0C8F8F0220321362000F0C3F8E7
:100CD00010BD10B50446234608220021012000F073
:100CE000C4F810BD2DE9F04104460E4600F0F9F8B5
:100CF000074600210E20FFF74EFF05460EB12543A3
:100D000000E0A5432A4600210E2000F090F8384666
:100D100000F0E0F8BDE8F08110B50446224602215B
:100D2000032000F073F810BD10B50446224641F6CA
:100D300004012E2000F06AF810BD000070B50446D2
:100D400003210420FFF73CFF0546002C14DD22465A
:100D500000210C2000F05AF845F010050E480068FC
:100D6000406940F080500C49096848612A460321D7
:100D7000042000F070F80EE025F010050648006829
:100D8000406920F080500449096848612A460321DF
:100D9000042000F060F870BD2000002010B504466B
:100DA00022460021182000F031F810BD70B504462D
:100DB00004F01F0040F060052A460E212B2000F0B1
:100DC0004AF870BD10B503F078FD002211462C20C2
:100DD00000F01CF8002206212C2000F03CF803F063
:100DE00051FD00220321362000F035F80120FFF7E5
:100DF000B5FCF0220321362000F02DF80020024936
:100E00000968887610BD000020000020F8B505466E
:100E10000E461446E0B28DF8000020128DF8010055
:100E2000B1B2A8B26B46022200F01FF8F8BDF8B5C7
:100E300006460F461446002504E0E0B20DF8050012
:100E4000240A6D1C042DF8DBB9B2B0B26B46042243
:100E500000F00BF8F8BD37B504460D46A9B2A0B2B4
:100E600002AB012200F001F83EBD2DE9F843064631
:100E70000C461746984600253CB9F0B240F0800277
:100E800028466D1C0DF800201BE0F0B240F0C002B7
:100E900028466D1C0DF800207F2C05DCE2B22846A8
:100EA0006D1C0DF800200CE0E0B240F080022846F6
:100EB0006D1C0DF80020C4F3C71228466D1C0DF8F8
:100EC000002043463A466946284603F0F9FABDE851
:100ED000F883704710B5044614B1282000F0DAFEFC
:100EE00010BD10B54FF4004000F036F9044614B1BF
:100EF000282000F0C1FE204610BD0000F8B50446D1
:100F00000D46164604EB041202EB82022E4B03EB55
:100F10008202518804EB041202EB820203EB82028C
:100F2000D2F850016A4602F047F89DF800000A28FE
:100F300001D14042F8BD9DF80000E0BB04EB041075
:100F400000EB8000204901EB8000B0F84C1104EB6D
:100F5000041000EB80001C4A02EB8000B0F84C014A
:100F6000401C04EB041202EB8202174B03EB8202DB
:100F7000A2F84C0104EB041000EB80001A4602EBCF
:100F80008000AC3000EB01130FCB85E80F0004EBC1
:100F9000041000EB80000C4901EB8000B0F84C011C
:100FA00009280BDD002004EB041101EB8101064A46
:100FB00002EB810100E003E0A1F84C010020B9E759
:100FC0006FF00A00B6E700009C09002010B500F0A1
:100FD00029F800F031F802F02FFF10BD10B50446DB
:100FE00003F00CF80848FFF7BFFB2088FFF79CFED2
:100FF0006088FFF7D3FEA088FFF78EFE04F108009B
:10100000FFF767FE10BD00002800002070B5044601
:101010000D462A4621460248006801F0CDFF70BD0A
:101020002400002010B5002001F09CFF0149086059
:1010300010BD00002400002000B587B0142102A8D4
:10104000FFF735F900BF3C48C06C40F002003A4958
:10105000C8640846C06C00F00200019000BF00BFE9
:1010600000BF0846C06C40F00200C8640846C06C6F
:1010700000F00200019000BF00BF00BF0846C06C36
:1010800040F00100C8640846C06C00F00100019007
:1010900000BF00BF00BF0846C06C40F00200C8643B
:1010A0000846C06C00F00200019000BF00BF881429
:1010B0000290002003900120049002A91F4800F034
:1010C000B9FC1020029001200390049003200590A9
:1010D00002A94FF0904000F0ADFC4FF400400290A8
:1010E000174803900220049002A9144800F0A2FCC3
:1010F0004FF4005002900120039000200490032040
:10110000059002A90D4800F095FC0022022128203C
:1011100000F0CDFD282000F0BDFD012210214FF090
:10112000904000F06BFD00224FF40051034800F0A6
:1011300065FD07B000BD000000100240000400483B
:101140000000111010B501F0B3FE4FF4004000F0A4
:1011500063FC01F0BFFE10BD014600200022044BDD
:101160001B6803EA01020AB1012000E00020704779
:101170000004014010B54FF47A7002F079F910BD07
:1011800010B5024692F82030012B01D0022B06D177
:1011900010684069084314686061002010BD506AFF
:1011A00040F4802050620120F8E7F0B504460D4677
:1011B0001E4694F8207020688368A86800B900E093
:1011C00000BF012F01D0022F7CD103F0806030B925
:1011D00003F0006018B903F08050002873D0C3F307
:1011E0000161022905D9606A40F4000060620120B3
:1011F000F0BD012088403060A86860B9B5F800C033
:10120000E86840EA4C5C206800F5C07000EB011013
:10121000C0F800C00FE0D5E901C040EACC00D5F825
:101220000CC040EA0C00D4F800C00CF5C07C0CEBFC
:10123000011CCCF80000D5F810C0206800F5C07083
:1012400000EB0110C0F804C0287D01280ED12068F1
:1012500000F5C07000EB0110406840F4807C20680D
:1012600000F5C07000EB0110C0F804C0D079000692
:1012700092F806C040EA0C4092F805C040EA0C2CF7
:1012800010794CEA000C206800F5C07000EB0110EA
:10129000C0F80CC0D078000692F802C040EA0C40BA
:1012A00092F801C040EA0C2092F800C040EA0C001D
:1012B000D4F800C00CF5C07C0CEB011CCCF8080085
:1012C000206801E016E00FE000F5C07000EB0110AF
:1012D000006840F0010C206800F5C07000EB0110C0
:1012E000C0F800C0002083E7606A40F4001060622C
:1012F00001207DE7606A40F480206062012077E78A
:10130000F0B504460A46216894F82050012D01D01A
:10131000022D74D1D1F8000240F00100C1F80002A2
:10132000107D00F01F06012000FA06F3D1F81C0220
:101330009843C1F81C02D069C8B9D1F80C0298438F
:10134000C1F80C02908880B2968940EA064601F501
:101350001070576940F83760108880B2168940EAEB
:10136000064601F51070576900EBC7004660D0696A
:10137000012819D1D1F80C021843C1F80C02908849
:1013800080B2168840EA064601F51070576940F8A9
:101390003760908980B2168940EA064601F51070E0
:1013A000576900EBC7004660906928B9D1F804027C
:1013B0009843C1F8040204E0D1F804021843C1F8CC
:1013C0000402106928B9D1F814029843C1F8140234
:1013D00004E0D1F814021843C1F81402106A01287D
:1013E00004D1D1F81C021843C1F81C02D1F8000244
:1013F00020F00100C1F800020020F0BDFFE7606AA4
:1014000040F4802060620120F7E7704770B5044621
:1014100094F82050012D01D0022D7CD151B92068C3
:10142000C06800F0030080B9606A40F40010606298
:10143000012070BD2068006900F0030028B9606ACF
:1014400040F4001060620120F3E7206800F5D870D6
:1014500000EB0110006800F004009060906840B953
:10146000206800F5D87000EB01100068400D106096
:1014700007E0206800F5D87000EB01100068C00894
:101480005060206800F5D87000EB0110006800F093
:1014900002004008D060206800F5D87000EB011011
:1014A000406800F00F001061206800F5D87000EB74
:1014B0000110406800F47F40000A9061206800F548
:1014C000D87000EB01104068000C5061206800F5F6
:1014D000D87000EB011080681870206800F5D87093
:1014E00000EB0110806800F47F40000A587020680B
:1014F00000F5D87000EB0110806800F47F00000C4C
:101500009870206800F5D87000EB01108068000E1C
:10151000D870206800E031E000F5D87000EB0110D1
:10152000C0681871206800F5D87000EB0110C06821
:1015300000F47F40000A5871206800F5D87000EB75
:101540000110C06800F47F00000C9871206800F55D
:10155000D87000EB0110C068000ED87131B9206856
:10156000C06840F020002668F06005E0206800694F
:1015700040F020002668306100205AE7606A40F49D
:1015800080206062012054E72DE9F05F04460025C9
:10159000206846692068D0F8049020688768206831
:1015A000D0F80CA02068D0F810B02068D0F81880CF
:1015B00006F00100002855D007F00100C0B101205D
:1015C0002168886007F0020018B1204600F013FA85
:1015D0000EE007F0040010B145F4006508E007F0E4
:1015E000080010B145F4805502E0204600F002FAF0
:1015F00007F48070C8B14FF480702168886007F4E8
:10160000007018B1204600F0F8F90EE007F4806091
:1016100010B145F4005508E007F4006010B145F43E
:10162000804502E0204600F0E7F907F48030C8B1B9
:101630004FF480302168886007F4003018B12046EC
:1016400000F0DDF90EE007F4802010B145F400450C
:1016500008E007F4002010B145F4803502E0204690
:1016600000F0CCF906F0080038B10AF0100020B103
:1016700045F4007510202168C86006F0040040B1F0
:101680000AF0080028B108202168C860204600F050
:1016900060F906F0020038B12068C06800F003006D
:1016A00010B1204600F056F906F0400038B10BF0BA
:1016B000100020B145F4806510202168086106F013
:1016C000200040B10BF0080028B108202168086113
:1016D000204600F05DF906F0100038B1206800697E
:1016E00000F0030010B1204600F053F906F400307A
:1016F00040B109F0100028B1102021684860204650
:1017000000F048F906F4803040B109F0080028B133
:10171000082021684860204600F072F906F4004075
:1017200088B309F0040078B306F4807020B108F0A3
:10173000010008B145F0010506F4007020B108F081
:10174000020008B145F0020506F4806020B108F0FF
:10175000040008B145F0040506F40060A0B108F0EB
:10176000700088B108F07000402817D006DC1028FF
:101770000BD020280CD0302819D10CE0502810D0E4
:10178000602814D110E01DE019E045F008050FE0D5
:1017900045F010050CE045F0200509E045F0400556
:1017A00006E045F0800503E045F4807500E000BFE9
:1017B00000BF2068806920F07000216888610420E3
:1017C000216848602DB1606A284360622046FFF7B7
:1017D0001CFE00F000B830BCBDE8C09F70B50446E8
:1017E0000CB9012070BD94F8200010B9204600F01B
:1017F000AFF82068006820F002002168086000F05F
:1018000003FA05460DE000F0FFF9401B0A2808D94D
:10181000606A40F400306062052084F820000120F6
:10182000E0E72068406800F002000028EBD1206863
:10183000006840F001002168086000F0E5F9054605
:101840000DE000F0E1F9401B0A2808D9606A40F475
:1018500000306062052084F820000120C2E7206883
:10186000406800F001000028EBD0207E012806D15E
:101870002068006840F080002168086005E020686A
:10188000006820F0800021680860607E012806D191
:101890002068006840F040002168086005E020688A
:1018A000006820F0400021680860A07E012806D171
:1018B0002068006840F020002168086005E020688A
:1018C000006820F0200021680860E07E012806D131
:1018D0002068006820F010002168086005E020689A
:1018E000006840F0100021680860207F012806D1C0
:1018F0002068006840F008002168086005E0206862
:10190000006820F0080021680860607F012806D187
:101910002068006840F004002168086005E0206845
:10192000006820F0040021680860D4E9020108433F
:1019300021690843616908436168491E08432168B9
:10194000C86100206062012084F82000002049E77F
:101950007047704710B586B004460B4B0B4A002108
:101960002046FFF753FD08B1FEF74CFE0648074B33
:1019700004900C330FCB8DE80F0004480EC80020F4
:10198000FEF7BCFC06B010BD450000208009002019
:1019900070477047704770B5044694F820000128DE
:1019A00022D1022084F820002068006820F0010085
:1019B0002168086000F028F905460DE000F024F9E0
:1019C000401B0A2808D9606A40F400306062052094
:1019D00084F82000012070BD2068406800F00100FC
:1019E0000028EBD16062F6E7606A40F40020606294
:1019F0000120F0E7704770477047704770477047A5
:101A00007047000010B504460248006801F04AFB28
:101A100010BD00002400002010B5044604480068F2
:101A2000204020B1024804602046FFF7EBFF10BDC4
:101A30001404014078B503460022CBE0012696400D
:101A40000D6805EA0604002C72D04D68022D02D004
:101A50004D68122D13D1D60803F1200555F8260044
:101A60005507EE0E0F25B540A8435607F60E0D6933
:101A7000B5402843D60803F1200545F8260018682C
:101A800056000325B540A8430D7905F0030556001F
:101A9000B540284318604D68012D08D04D68022DCF
:101AA00005D04D68112D02D04D68122D13D19868C4
:101AB00056000325B540A8435600CD68B5402843DD
:101AC0009860586801259540A8430D79C5F3001525
:101AD000954028435860D86856000325B540A84370
:101AE00056008D68B5402843D8604D6805F0805594
:101AF000B5F1805F6DD100BF394D2D6E45F0010508
:101B0000374E356635462D6E05F00105009500BF50
:101B100000BF4FEAB635960855F8260095072E0FF8
:101B20000F25B540A843B3F1904F02D1002515E031
:101B30004FE02C4DAB4201D101250FE02A4DAB42C5
:101B400001D102250AE0294DAB4201D1032505E070
:101B5000274DAB4201D1042500E007259607360F3B
:101B6000B5402843234D960845F82600224D2868A5
:101B7000A0434D6805F48035B5F5803F00D1204382
:101B80001D4D28602D1D2868A0434D6805F40035C3
:101B9000B5F5003F00D12043174D2D1D28602D1DA8
:101BA0002868A0434D6805F48015B5F5801F00D165
:101BB0002043114D083528602D1D2868A0434D682D
:101BC00005F40015B5F5001F00D120430A4D0C3572
:101BD0002860521C0D68D540002D7FF42FAF78BDD2
:101BE000001002400004004800080048000C0048B3
:101BF0000010004808000140000401400AB1816162
:101C000000E08162704700000148006870470000F2
:101C1000C400002002480068401C01490860704769
:101C2000C400002010B50024032000F081F80F202C
:101C300000F008F808B1012401E000F01BF820468C
:101C400010BD000070B504460025094800684FF437
:101C50007A71B0FBF1F6304601F04AF808B101257F
:101C600004E000222146501E00F021F8284670BDF5
:101C7000C00000207047000000BF00F01F020121DB
:101C80009140034A430942F8231000BF7047000007
:101C900080E100E000BF00F01F02012191404209F5
:101CA000920002F1E022C2F8001100BF70472DE956
:101CB000F05F80460D461646002701F091F8074672
:101CC00039462A46334601F00700C0F1070ABAF147
:101CD000040F02D94FF0040A01E0C0F1070AD1460F
:101CE00000F1040ABAF1070F02D24FF0000A01E036
:101CF000A0F1030AD4464FF0010A0AFA09FAAAF140
:101D0000010A0AEA020A0AFA0CFA4FF0010B0BFA6E
:101D10000CFBABF1010B0BEA030B4AEA0B04214667
:101D2000404601F065F800F000B830BCBDE8C09F47
:101D300000BF00F00702064B19684FF6FF03194079
:101D4000044B0B4343EA0221014B196000BF70476B
:101D50000CED00E00000FA050246B2F5007F2AD142
:101D60001D48006800F4C060B0F5007F32D01A480A
:101D7000006820F4C06040F40070174B18601748EA
:101D8000006832235843164BB0FBF3F0411C00E0CF
:101D9000491E1148406900F48060B0F5806F01D1A0
:101DA0000029F5D10C48406900F48060B0F5806FDF
:101DB00010D1032070470848006800F4C060B0F5F7
:101DC000806F07D00448006820F4C06040F4806051
:101DD000014B18600020EDE700700040C0000020BB
:101DE00040420F000248006800F4C06070470000E5
:101DF000007000402DE9F84304460025A8462088DD
:101E000000F40060B0F5006F26D1E06C68B1B0F569
:101E1000000F03D0B0F5400F0ED10CE0F748C068BA
:101E200040F48030F549C86008E00021201D01F031
:101E3000AFFE054602E001E0012500BF00BF55B935
:101E4000EE488830006820F44000E16C0843EB491C
:101E5000C1F8880000E0A846206800F40030B0F522
:101E6000003F75D14FF00009E448806D012121EA5F
:101E7000107078B100BFE148806D40F08050DF49BC
:101E800088650846806D00F08050009000BF00BF5C
:101E90004FF00109DA48006840F48070D8490860C2
:101EA000FFF7B2FE074606E0FFF7AEFEC01B0228B2
:101EB00001D9032505E0D248006800F480700028AD
:101EC000F2D000BF7DBBCD489030006800F4407672
:101ED000CEB1606EB04216D0C8489030006820F491
:101EE0004076C648D0F8900040F48030C349C1F82D
:101EF00090000846D0F8900020F48030C1F890009F
:101F00000846C0F8906006F00100A8B1FFF77CFE1B
:101F1000074609E0FFF778FEC01B41F2883188428E
:101F200002D9032507E016E0B4489030006800F0BD
:101F300002000028EED000BF5DB9B04890300068C4
:101F400020F44070616E0843AC49C1F8900003E092
:101F50000CE0A84600E0A846B9F1010F05D1A7485A
:101F6000806D20F08050A549886500BF207800F082
:101F7000010048B1A1488830006820F00300216AC0
:101F800008439E49C1F88800207800F0020002282A
:101F900009D19A488830006820F00C00616A084333
:101FA0009649C1F88800207800F00400042809D17F
:101FB00092488830006820F03000A16A08438F49B9
:101FC000C1F88800207800F00800082809D18B4863
:101FD0008830006820F0C000E16A08438749C1F8F2
:101FE0008800207800F02000202809D1834888301C
:101FF000006820F44060216B08438049C1F88800E4
:10200000208800F40070B0F5007F09D17B4888304B
:10201000006820F44020616C08437849C1F88800CA
:10202000208800F48060B0F5806F09D17348883053
:10203000006820F44010A16C08437049C1F8880082
:10204000207800F04000402809D16C4888300068B2
:1020500020F44050616B08436849C1F8880020783B
:1020600000F08000802809D164488830006820F49E
:102070004040A16B08436149C1F88800208800F402
:102080008070B0F5807F09D15C488830006820F40A
:102090004030E16B08435949C1F88800206800F4DA
:1020A0008010B0F5801F09D154489C30006820F0A2
:1020B0000300216C08435149C1F89C00208800F4BA
:1020C0000050B0F5005F1FD14C488830006820F008
:1020D0004060216D0843494988310860206DB0F1A6
:1020E000006F06D14548C06840F480104349C8607D
:1020F0000AE0206DB0F1806F06D10121201D01F0B2
:1021000047FD054605B1A846206800F40020B0F55B
:10211000002F1FD139488830006820F04060616D81
:102120000843364988310860606DB0F1006F06D110
:102130003248C06840F480103049C8600AE0606DE1
:10214000B0F1806F06D10121201D01F021FD05466F
:1021500005B1A846206800F48020B0F5802F1FD17B
:1021600026488830006820F04060A16D084323496C
:1021700088310860A06DB0F1006F06D11F48C068BB
:1021800040F480101D49C8600AE0A06DB0F1806F76
:1021900006D10121201D01F0FBFC054605B1A84632
:1021A000208800F48040B0F5804F14D11348883067
:1021B000006820F04050E16D084310498831086004
:1021C000E06DB0F1805F06D10221201D01F0E0FC3E
:1021D000054605B1A846206800F48030B0F5803F80
:1021E00009D106488830006820F00040216E08437D
:1021F0000249C1F888004046BDE8F883001002405B
:10220000007000402DE9F04104460D4614B901204C
:10221000BDE8F0815548006800F00700A8420ED2E2
:102220005248006820F007002843504908600846DB
:10223000006800F00700A84201D00120E8E72078FC
:1022400000F00100002840D06068032806D148480B
:10225000006800F00070D8B90120D9E76068022852
:1022600006D14348006800F4003088B90120CFE768
:10227000606830B93E48006800F0020040B90120B3
:10228000C6E73B48006800F4806008B90120BFE75A
:102290003748806820F0030061680843344988604B
:1022A000FFF7B2FC064608E0FFF7AEFC801B41F2E8
:1022B0008831884201D90320AAE72D48806800F0C0
:1022C0000C006168B0EB810FEED1207800F00200C5
:1022D000022807D12648806820F0F000A168084352
:1022E000234988602148006800F00700A8420ED901
:1022F0001E48006820F0070028431C490860084673
:10230000006800F00700A84201D0012080E7207893
:1023100000F00400042807D11548806820F4E0602C
:10232000E168084312498860207800F00800082816
:1023300008D10F48806820F46050216940EAC1004C
:102340000B49886000F032F809498968C1F303112C
:10235000084A515C01F01F01C840074908600F207E
:10236000FFF770FC0746384652E7000000200240A5
:1023700000100240804B0008C000002001480068A7
:1023800070470000C000002000B5FFF7F7FF0549C7
:102390008968C1F30221044A515C01F01F01C84061
:1023A00000BD000000100240904B00082DE9F041F4
:1023B00000240020DFF800C1DCF808C00CF00C019C
:1023C000DFF8F4C0DCF80CC00CF0030719B10C29DD
:1023D0001ED1012F1CD1DFF8E0C0DCF800C00CF0EA
:1023E000080CBCF1000F06D1DFF8CCC0DCF894C0BB
:1023F000CCF3032405E0DFF8C0C0DCF800C0CCF368
:102400000314DFF8B8C05CF8244041B9204606E068
:10241000042901D12A4802E0082900D129480C29C1
:1024200047D1DFF894C0DCF80CC00CF00305DFF8EE
:1024300088C0DCF80CC0CCF3021C0CF10103012DA8
:102440001FD0022D02D0032D1AD10CE0DFF870C08E
:10245000BCFBF3FCDFF86080D8F80C80C8F30628DA
:102460000CFB08F218E0DFF85CC0BCFBF3FCDFF803
:102470004880D8F80C80C8F306280CFB08F20BE063
:1024800000BFB4FBF3FCDFF83080D8F80C80C8F351
:1024900006280CFB08F200BF00BFDFF81CC0DCF808
:1024A0000CC0CCF3416C0CF1010C4FEA4C06B2FBB2
:1024B000F6F0BDE8F081000000100240984B0008E3
:1024C0000024F40000127A002DE9F843044614B900
:1024D0000120BDE8F883F848806800F00C06F64853
:1024E000C06800F00307207800F01000102875D1B4
:1024F0001EB10C2E74D1012F72D1EF48006800F08C
:10250000020018B1A06908B90120E2E7EA48216A8F
:10251000006800F0080020B1E748006800F0F00013
:1025200005E0E5489430006800F4706000098142DD
:102530001FD9206A01F0F0FB08B10120C9E700BFF4
:10254000DD48006840F00800DB4908600846006884
:1025500020F0F000216A0843D749086000BF084610
:10256000406820F47F40E16940EA0120D249486098
:102570001EE000BFD048006840F00800CE49086067
:102580000846006820F0F000216A0843CA49086044
:1025900000BF0846406820F47F40E16940EA01201E
:1025A000C5494860206A01F0B7FB08B1012090E7F7
:1025B000FFF7FCFEC0498968C1F30311BF4A515CB3
:1025C00001F01F01C840BE4908600F20FFF73AFB29
:1025D0008046B8F1000F4ED040467AE74BE0FFE767
:1025E000A06980B3B448006840F00100B2490860B7
:1025F000FFF70AFB054606E0FFF706FB401B022833
:1026000001D9032065E7AC48006800F0020000280B
:10261000F2D000BFA848006840F00800A649086052
:102620000846006820F0F000216A0843A2490860CB
:1026300000BF0846406820F47F40E16940EA01207D
:102640009D49486017E0FFE79B48006820F00100C3
:1026500099490860FFF7D8FA054606E0FFF7D4FA73
:10266000401B022801D9032033E79348006800F09B
:1026700002000028F2D1207800F0010000285CD090
:10268000082E03D00C2E0AD1032F08D18A480068E7
:1026900000F4003088B3606878BB012019E700BF00
:1026A0006068B0F5803F06D18348006840F4803010
:1026B000814908601AE06068B0F5A02F0BD17E4810
:1026C000006840F480207C4908600846006840F4B7
:1026D000803008600AE07848006820F4803076494D
:1026E00008600846006820F48020086000BF606829
:1026F00090B1FFF789FA054607E01EE0FFF784FA7C
:10270000401B642801D90320E3E66B48006800F40D
:1027100000300028F2D010E0FFF776FA054606E018
:10272000FFF772FA401B642801D90320D1E6624802
:10273000006800F400300028F2D1207800F0020098
:10274000022852D1042E03D00C2E14D1022F12D104
:102750005948006800F4806018B1E06808B90120A9
:10276000B7E65548406820F0FE40217C40EA016011
:102770005149486039E0E06800B34F48006840F4D0
:1027800080704D490860FFF73FFA054606E0FFF705
:102790003BFA401B022801D903209AE6464800680C
:1027A00000F480600028F2D04348406820F0FE40EA
:1027B000217C40EA01604049486016E03E480068DC
:1027C00020F480703C490860FFF71EFA054606E0D9
:1027D000FFF71AFA401B022801D9032079E6364890
:1027E000006800F480600028F2D1207800F0080032
:1027F000082836D16069D0B12F489430006840F085
:1028000001002D49C1F89400FFF7FEF9054606E0E6
:10281000FFF7FAF9401B022801D9032059E62648A0
:102820009430006800F002000028F1D019E022483E
:102830009430006820F001001F49C1F89400FFF7B0
:10284000E3F9054606E0FFF7DFF9401B022801D94E
:1028500003203EE618489430006800F0020000288B
:10286000F1D1207800F00400042870D14FF0000965
:102870001148806D00F0805078B900BF0E48806D1F
:1028800040F080500C4988650846806D00F080500B
:10289000009000BF00BF4FF001090A48006800F433
:1028A0008070F0B90748006840F4807005490860FE
:1028B000FFF7AAF905460EE000100240804B000821
:1028C000C000002000700040FFF79EF9401B022866
:1028D00001D90320FDE59B48006800F480700028C2
:1028E000F2D000BFA068012808D19748006840F0E6
:1028F000010095499039C1F8900021E0A0680528B1
:102900000FD19148006840F004008F499039C1F818
:1029100090000846D0F8900040F00100C1F8900007
:102920000EE08948006820F0010087499039C1F81D
:1029300090000846D0F8900020F00400C1F8900004
:1029400000BFA068A0B1FFF75FF9054609E02EE0DF
:10295000FFF75AF9401B41F28831884201D9032020
:10296000B7E57948006800F002000028F0D012E0D6
:10297000FFF74AF9054608E0FFF746F9401B41F228
:102980008831884201D90320A3E56F48006800F030
:1029900002000028F0D1B9F1010F07D16A48903840
:1029A000806D20F0805068499039886500BF20789C
:1029B00000F02000202838D1606AD8B16248083081
:1029C000006840F0010060499039C1F89800FFF7B5
:1029D0001BF9054606E0FFF717F9401B022801D94D
:1029E000032076E558480830006800F0020000280F
:1029F000F1D01AE054480830006820F00100524934
:102A00009039C1F89800FFF7FFF8054606E0FFF798
:102A1000FBF8401B022801D903205AE54A48083038
:102A2000006800F002000028F1D1A06AF0B30C2E7B
:102A300074D0A06A022853D143489038006820F02F
:102A40008070414990390860FFF7DEF8054606E0DE
:102A5000FFF7DAF8401B022801D9032039E53A488C
:102A60009038006800F000700028F1D1206B401E03
:102A70000101606B41EA0020E16A0843A18F012255
:102A8000C2EB510140EA41514020005DC2EB5000D1
:102A900041EA40613820005D41EAC0602A4990392E
:102AA000C8600846006840F0807000E048E00860B8
:102AB0000846C06840F08070C860FFF7A5F805467A
:102AC00006E0FFF7A1F8401B022801D9032000E52A
:102AD0001D489038006800F000700028F1D02FE009
:102AE00019489038006820F08070174990390860C4
:102AF0000846006800F0006020B90846C06820F071
:102B00000300C86010489038C068104908400E495A
:102B10009039C860FFF778F8054607E00EE0FFF748
:102B200073F8401B022801D90320D2E406489038EC
:102B3000006800F000700028F1D101E00120C8E435
:102B40000020C6E40070004090100240FFFFEEFE3F
:102B5000704770B504460CB9012070BD606A00B9B9
:102B600000BF0021A16294F85D0028B9002084F81C
:102B70005C00204600F04EF8022084F85D002068DA
:102B8000006820F0400021680860E068B0F5E06F60
:102B900001D9002501E04FF48055E068B0F5706F71
:102BA00005D0E068B0F5E06F01D00021A162206B94
:102BB00040B9E068B0F5E06F02D90221216301E07D
:102BC00001212163D4E901010843216908436169B6
:102BD0000843218B01F400710843E1690843216A2D
:102BE0000843A16A0843216808600421A06901EA3A
:102BF0001040616A0843616B0843E1680843284359
:102C00002168486000202066012084F85D000020D3
:102C1000A3E7000010B586B00446142101A8FDF713
:102C200046FB2B492068884247D100BF2948006EE7
:102C300040F48050274908660846006E00F4805032
:102C4000009000BF00BF00BF0846C06C40F001000C
:102C5000C8640846C06C00F00100009000BF00BFCF
:102C60002020019002200290012003900320049074
:102C70000520059001A94FF09040FEF7DBFE4020B3
:102C80000190022002900020039003200490052070
:102C9000059001A94FF09040FEF7CCFE80200190F6
:102CA000022002900120039003200490052005904B
:102CB00001A94FF09040FEF7BDFE00220121232024
:102CC000FEF7F5FF2320FEF7E5FF06B010BD00007C
:102CD00000300140001002407047000010B504466B
:102CE0000248006800F0DEF910BD000080000020FE
:102CF00070B504462546681EB0F1807F01D30120DF
:102D00000FE0681E4FF0E02148610F214FF0FF30C7
:102D100000F06EF800204FF0E02188610720086184
:102D2000002070BD00BFFEE70FB581B00198009094
:102D30000098C0F38910032813D1009800F0070011
:102D400007280ED10948DDF809100160DDF80D10E3
:102D500041600120064908600648006800F0A2F9B9
:102D600001E005B000BD00BFFBE700005C000020F3
:102D7000580000206400002010B51548154908606F
:102D80004FF4827048600021124881604FF4E06186
:102D9000C160022101610121416149028161082173
:102DA000C16100210162416281620721C16200218B
:102DB00001634163FFF7CDFE08B101F01BFA05483E
:102DC0000068006840F0400002490968086010BDD2
:102DD000003001400816002000BFFEE770470000E9
:102DE00002480068C0F30220704700000CED00E0CC
:102DF00010B5002807DA0A07140E054A00F00F0381
:102E00001B1FD45403E00A07130E024A135410BDCB
:102E100018ED00E000E400E00FB581B001980090EB
:102E20000098C0F38910022802D003280ED100E0D8
:102E30000DE0009800F00700072806D10548DDF8EE
:102E400009100160DDF80D10416000E000BF00BF17
:102E500005B000BD5C00002010B500F00FF800F0D8
:102E6000CFFC00F0EFFC00F00FFD00F099FC00F04B
:102E700059FC00F047FD00F019F810BD084880210A
:102E800002E0491E002204C00029FAD1054A064B7F
:102E90001A601A46126822F007021A607047000092
:102EA0007C2500207C270020BC000020704700000B
:102EB00006480078012808D105480078FF2804D288
:102EC00003480078401C0249087070479B000020AE
:102ED0009000002010B500241A480078012830D155
:102EE000FDF762F904461848007820B116480078CA
:102EF000401E1549087014480078F8B91348007846
:102F0000E0B900F06BFD12481249097850F8210031
:102F1000114908600F4800781049097888420DD09F
:102F20000D480068806B401C0B49096888630C4899
:102F30000068401C0A490860FDF756F92046FDF775
:102F400037F910BD9B000020900000209100002068
:102F5000AC1A002093000020AC000020920000205A
:102F60008400002070B5054600261048007808B19E
:102F7000002070BDFDF718F906460D48046800688A
:102F800020B10B4800684068094908603046FDF7E9
:102F90000FF94CB10320207025810020606005A04E
:102FA0006061204600F0B0FB2046E2E79000002080
:102FB000880000203F0000002DE9F04105460E4644
:102FC000144600272878032803D001202070BDE88C
:102FD000F0813148007810B102202070F7E72F48C7
:102FE000007810B10D202070F1E7FDF7DDF80746FD
:102FF000288940B12889401E28813846FDF7D8F835
:1030000000202070E3E72648006890F8300040F088
:1030100001002349096881F830000020204909682F
:1030200081F831001E480068C662284600F02EFB79
:103030003846FDF7BDF800F097FCFDF7B5F80746F8
:103040001748006890F8310020B1012809D0022803
:1030500006D102E0002020700BE00E20207008E076
:1030600000BF29460E48006800F0FBFA0A202070D5
:1030700000BF00BF00200A49096881F830000849F4
:10308000096881F8310006490968C8613846FDF7CA
:103090008FF800BF9BE70000900000209100002007
:1030A000A400002070B5044600252078032801D034
:1030B000012070BDFDF778F80546A07A60B10023C5
:1030C00001221946204600F087FA2846FDF770F8DD
:1030D00000F04AFC0020ECE720894FF6FF7188429F
:1030E00007D22089401C20812846FDF761F8002086
:1030F000DFE72846FDF75CF83320DAE710B50B4828
:10310000007890B900F06AFC094800780949087015
:1031100009480749097850F821000849086008461D
:10312000006807490860FDF746F810BD9B000020C5
:103130009300002092000020AC1A0020AC00002078
:10314000A4000020704700002DE9F04F85B007462D
:10315000884691461C46DDE911B6DDF838A000200E
:103160000390FDF721F803901F48007830B10398D1
:10317000FDF71EF83C2005B000F03CB81B4850F8A5
:10318000240060BB0120194941F824000398FDF791
:103190000FF833464A464146384600F015F9049088
:1031A00010985346CDE901B6009020460F9A049935
:1031B00000F02AFC054635B90D48007801280CD1ED
:1031C00000F0D2FB09E0FCF7EFFF03900020074975
:1031D00041F824000398FCF7EBFF2846CBE703985F
:1031E000FCF7E6FF2820C6E790000020AC1A00207C
:1031F0009B00002030BCBDE8C08F70472DE9F04136
:10320000054600274748007810B14020BDE8F0810E
:10321000282D01D13E20F9E7FCF7C6FF0746FF2D18
:1032200003D14148006890F83250404850F825409A
:1032300024B93846FCF7BCFF4320E7E7012C04D152
:103240003846FCF7B5FF3D20E0E714F8340F384965
:10325000085C617888432178354A505414F8340961
:103260001146085C30B994F836103248007888432B
:1032700030490870E06918B12046E16900F0F1F9C1
:10328000666A16B1304600F079FA0020E06284F8F0
:10329000300084F8310028480078FF2804D22648FE
:1032A0000078401C244908703846FCF781FF00F084
:1032B00092F9FCF779FF07461F48007820B11E48B5
:1032C0000078401E1C490870204600F041F81B4859
:1032D0000078401E194908700020144941F8250063
:1032E000A06930B90020616988611549606908608A
:1032F00005E0D4E905014861D4E905108861114869
:10330000006860610F4804600FA0E0643846FCF775
:103310004FFF0E480078012801D100F025FB002066
:1033200074E7000090000020A4000020AC1A0020E8
:103330009500002094000020910000209C000020B7
:10334000B0000020A80000203F0000009B000020EB
:10335000704770472DE9F04106460F4614464FF07E
:1033600000081548007818B112202070BDE8F081DF
:10337000FCF71AFF8046FF2E03D11048006890F832
:1033800032600F4850F826502DB94046FCF710FF28
:1033900043202070EAE7012D05D14046FCF708FFE5
:1033A00043202070E2E7EF644046FCF701FF002075
:1033B000207000BFDAE7000090000020A400002089
:1033C000AC1A00207047000070B50446101D20F0B4
:1033D00007004FF08076051F28462E60051F2846FF
:1033E0002C60214E051F28462E604FF01236051F17
:1033F00028462E604FF00336051F28462E604FF0FA
:103400000236051F28462E607610051F28462E60BE
:10341000051F284629604FF01136051F28462E60EB
:103420004FF01036051F28462E604FF00936051F55
:1034300028462E604FF00836051F28462E604FF0B4
:103440000736051F28462E604FF00636051F284612
:103450002E604FF00536051F28462E604FF00436CB
:10346000051F28462E6070BD793B0008704700009C
:1034700070B5054600261748007800B170BD1648A3
:10348000007800B1FAE71DB3FCF78EFE064613483C
:10349000006890F834401248005D1049096891F8BE
:1034A000351088430E4908550846005D40B90B4861
:1034B000006890F836100B48007888430949087076
:1034C00006480068C5623046FCF772FE00F04CFA10
:1034D00000BFD3E79000002091000020A40000204E
:1034E000950000209400002070B5002600F072F8CE
:1034F000FCF75AFE064631480068401C2F49086018
:103500003046FCF755FE2E480078012853D12D484F
:10351000007820B1012804D0022809D103E0012558
:103520000BE0002509E0012501202649087004E090
:10353000012500202349087000BF00BF05B970BDF8
:103540002148046833E0FCF72FFE0646E06A50B3DA
:10355000E06A401EE062E06A28BB94F8300000F0A8
:10356000370040B114F8300F00F0C800207001207F
:103570006070303C02E0002084F8310094F83000A4
:1035800000F0080078B93434A0781049097808436D
:103590000E49087020780E49085C6178084314F8D9
:1035A00034190B4A505464693046FCF701FE94F814
:1035B00032002828C7D100BFC1E70000B8000020B2
:1035C0009B000020B4000020B000002094000020E8
:1035D00095000020704770472DE9F04F05460F46D3
:1035E00090469946A87A19490E5C05F10B00805D5A
:1035F00011F800B00BEBC60000F0FF0A144850F8B9
:103600002A4000202034E0602760207C20EA080067
:10361000207484F81190207C203C00F0080068B9E8
:1036200094F836000B49097808430A4908700A489B
:10363000805D94F83510084307498855294620468F
:1036400000F00FF8504600F009B80000804A00086A
:10365000AC1A0020940000209500002030BCBDE88A
:10366000C08F10B590F8342001F10B039B5C90F8EB
:103670003540A34301F10B04A35423469B5C23B9BB
:103680008B7A90F83640A3438B7210BD10B51B4A5D
:103690001268D061194A126892F8343000F10B02B6
:1036A000D25C164B1B6893F835301A43134B1B68DA
:1036B00093F8344000F10B031A55827A0F4B1B68C4
:1036C00093F836301A4382720C4A126892F834101A
:1036D0000B4A525C094B1B6893F835309A43084BF0
:1036E0005A541A46525C42B9044A126892F836306B
:1036F000044A12789A43034B1A7010BDA4000020AC
:103700009500002094000020014600228A720020CB
:1037100005E0002301F10B021354421CD0B206282D
:10372000F7D370472DE9F0415021114800F012F90C
:1037300000250DE0681C86B20D4800EB051400EB77
:1037400006170020207067600AA0E060681C85B240
:10375000042DEFD3064800EB0514002020706060B4
:1037600004A0E060024804490860BDE8F081000060
:103770005C1800203F0000008C00002030B501469E
:103780004A6808682AB9CC68606028B1002545609D
:1037900002E0106000B142608B6800255D6230BDC0
:1037A00070B54FF4F071134800F0D4F8002411E024
:1037B000601C85B204EB44000E4901EBC00305EB2D
:1037C000450001EBC006002018705E600AA0586139
:1037D000601C84B2132CEBD304EB4400054901EBCD
:1037E000C00300201870586003A0586108460349C0
:1037F000086070BD7C1600203F000000880000209B
:1038000000200849086008490870084908700849FC
:1038100008700849087008490860084908600849A4
:1038200008707047B8000020900000209100002030
:103830009C0000209B00002084000020A0000020AD
:10384000B500002000210A4A1170002004E0002188
:10385000084A1154411CC8B20628F8D30021064A70
:103860001170064A1170064A1160064A11607047CD
:10387000940000209500002092000020930000207A
:10388000AC000020A400002070B540F62C211848A0
:1038900000F060F8A421174800F05CF8002413E061
:1038A000601CC5B2C4EBC40000EB4000104901EB42
:1038B0008003C5EBC50000EB400001EB80065E61B4
:1038C0000DA0D864601CC4B21E2CE9D3C4EBC400A4
:1038D00000EB4000064901EB80030020586106A080
:1038E000D86400200549086001480549086070BD9A
:1038F000501B0020AC1A00203F000000B000002048
:10390000A800002000B587B00320002180220A4BC8
:10391000CDE90132CDE903104FF6FF702823074AA5
:1039200000900748FFF710FC06AA06A12820FFF721
:1039300011FD07B000BD0000AC180020A81A00203F
:10394000513B000875432F4F532D49492049646C62
:103950006500000004E0002200F8012B4A1E91B22D
:103960000029F8D17047000010B50024FCF71CFCBA
:10397000044613480078F8B912480078E0B900F01E
:103980002DF811481149097850F8210010490860B4
:103990000E4800780F49097888420DD00C4800681D
:1039A000806B401C0A49096888630B480068401C0A
:1039B00009490860FCF713FC2046FCF7F9FB10BD31
:1039C0009000002091000020AC1A002093000020FD
:1039D000AC00002092000020840000200649074A25
:1039E0001278885C0649095C034A515C01EBC0010E
:1039F000044A117070470000804A000894000020BB
:103A000095000020930000202DE9F84F05460F4651
:103A100090469946DDE90AAB00200090FCF7C4FB14
:103A2000009042480468002C7AD0183454F8040CF2
:103A30003E4908600098FCF7BBFB44F8187CA5766B
:103A4000002020766076606144F814BC44F80CAC29
:103A500044F8108C0C9824F8080C24F8069C0020DC
:103A6000E077E810207705F00700E076217F01205D
:103A70008840A077E17E0120884060770020606068
:103A8000E060A0602062A0626062E062206328A023
:103A90006063183C002606E0002104F1500040F865
:103AA0002610701CC6B2002EF6D02046FFF74AFB47
:103AB000FCF77AFB00901F4840F825400098FCF77F
:103AC00077FB2046FFF799FBFCF76EFB00901A4846
:103AD000006860610020A0611748006810B11648B6
:103AE00000688461144804603434A078134909786C
:103AF00008431249087020781149085C617808432E
:103B000014F834190E4A50540E480078401C0D49E0
:103B100008700098FCF74CFB002000F015B8FFE798
:103B20000098FCF745FB4220F7E70000A8000020C2
:103B30003F000000AC1A0020B000002094000020DC
:103B4000950000209C00002018BCBDE8E08F00001C
:103B5000002400BF00BFFCF727FB044605480068AF
:103B6000401C044908602046FCF722FBFFF7F1FBEC
:103B7000F1E70000A000002010B504480068FFF73E
:103B800021FCFF20FFF73AFB10BD0000A40000203D
:103B90002DE9F04104460F4600255B48C06800F05F
:103BA000030090B15848C06800F0030021688842C3
:103BB00009D1206838B15448C068C0F30210401CD5
:103BC0006168884233D0012531E02068012804D0A3
:103BD000022809D003281AD10DE04B48006800F0F4
:103BE000020000B9012514E04748006800F4806035
:103BF00000B901250DE04448006800F4003028B900
:103C00004148006800F4802000B9012501E0012549
:103C100000BF00BF5DB9D4E90010401E41EA0010AA
:103C20003949C96821F0730108433749C860002D3C
:103C300067D13548006820F0806033490860FDF79F
:103C4000E3FF064606E0FDF7DFFF801B022801D9EF
:103C5000032505E02C48006800F000600028F2D140
:103C600000BFC5BB67B9A0680002217B40EAC16004
:103C700025490969254A114008432349086120E084
:103C8000012F0FD1A0680002218A0122C2EB51014D
:103C900040EA41501C4909691D4A114008431A492C
:103CA00008610EE0A0680002217D0122C2EB5101F3
:103CB00040EA416014490969164A11400843124913
:103CC00008611148006840F080600F490860FDF706
:103CD0009BFF064607E014E0FDF796FF801B0228D5
:103CE00001D9032505E00848006800F000600028BD
:103CF000F2D000BF2DB904480069A1690843024908
:103D000008612846BDE8F08100100240FF80FF07EF
:103D1000FF809FFFFF80FFF9F8B504460026234887
:103D2000806D00F0805018B1FEF75CF8054616E093
:103D300000BF1E48806D40F080501C4988650846D1
:103D4000806D00F08050009000BF00BFFEF74AF881
:103D500005461648806D20F0805014498865B5F5F9
:103D6000007F07D1802C10D9A02C01D902260CE0AD
:103D700001260AE0802C01D9032606E0802C01D11F
:103D8000022602E0702C00D101260948006820F0CC
:103D900007003043064908600846006800F0070045
:103DA000B04201D00120F8BD0020FCE70010024025
:103DB000002002402DE9F84304460F4615461E46F2
:103DC0004FF00008224639461848FCF757FA1020F1
:103DD0004FF090418862601982B21549134800F093
:103DE000BBFB08B100F0FEF96A46002111480068EB
:103DF000FFF7E2F89DF800000A2802D16FF00908E9
:103E00000DE09DF8000040B9094801192A463046E6
:103E1000FCF734FA4FF0000801E06FF00A081020B8
:103E20004FF0904188614046BDE8F88308140020B7
:103E3000081500208000002000B585B014216846D8
:103E4000FCF735FA4FF480500090012001900220D9
:103E500002900320039069460C48FDF7EBFD002219
:103E60004FF480510948FDF7C9FE4FF4805000908F
:103E7000002001900120029069460448FDF7DAFD18
:103E8000022000F07EFD05B000BD000000040048E7
:103E900010B5024800F0B8FB10BD00000816002065
:103EA00010B50446B4F8460058B12068007B216C78
:103EB0000870206C401C2064B4F84600401EA4F832
:103EC0004600B4F8460050B92068406820F0600011
:103ED00021684860E08F10B9204600F02DF810BD31
:103EE00010B50446E08F48B1A06B007821680873D4
:103EF000A06B401CA063E08F401EE087E08F58B9A4
:103F00002068406820F0800021684860B4F84600CE
:103F100010B9204600F010F810BD00000146002046
:103F2000044A126890B24FF6C77210400843014A23
:103F3000106070470030014070B50446FDF764FE24
:103F400005462068406820F02000216848602A4625
:103F50006421204600F020F818B1206E40F02000C7
:103F60002066206E88B994F85D00042806D10120EF
:103F700084F85D002046FEF7AFFE0CE0012084F8D7
:103F80005D002046FEF7AAFE05E0012084F85D00F2
:103F90002046FEF7DDFD70BDF8B504460E46154619
:103FA000334600224FF4C0512046009500F030F80F
:103FB00028B1206E40F0200020660320F8BD334673
:103FC000002280212046009500F077F828B1206E6D
:103FD00040F0200020660320F0E7334600224FF433
:103FE000C0612046009500F013F828B1206E40F023
:103FF000200020660320E1E70020DFE700B508206D
:10400000FFF78CFF00BD00B52020FFF787FF00BD44
:104010002DE9F04104460E4617461D46DDF818808E
:1040200044E0B6F5C06F02D10FB92068007B681C70
:10403000D8B3FDF7E9FDA0EB0800A84200D2A5BB6C
:104040002068406820F0E000216848606068B0F5B2
:10405000827F0DD1A068B0F5004F03D0A068B0F505
:10406000806F05D12068006820F04000216808605A
:10407000A06AB0F5005F0DD100BF2068006820F491
:104080000050216808602068006840F400502168F2
:10409000086000BF012084F85D0000BF002084F8A4
:1040A0005C0000BF0320BDE8F081FFE72068806866
:1040B0003040B842B5D10020F5E72DE9F041044683
:1040C0000E4617461D46DDF818803EE0681CD8B342
:1040D000FDF79AFDA0EB0800A84200D2A5BB20681E
:1040E000406820F0E000216848606068B0F5827F99
:1040F0000DD1A068B0F5004F03D0A068B0F5806F77
:1041000005D12068006820F0400021680860A06A9E
:10411000B0F5005F0DD100BF2068006820F40050AA
:10412000216808602068006840F400502168086039
:1041300000BF012084F85D0000BF002084F85C000F
:1041400000BF0320BDE8F081FFE7206880683040B1
:10415000B04201D1012000E00020B842B6D10020D9
:10416000F0E700000FB470B50546099C1CB9124970
:104170000598086002E01049059848600E48846080
:104180009DF818000C4908619DF818200DF11901DF
:104190000A48FCF773F80A4B084A07490948FDF733
:1041A00004F8094908700846007808B1FCF72AFAB3
:1041B000002070BC5DF814FB680900203D00002061
:1041C00050000020400900203C0000207047000003
:1041D00010B50020FEF7C6FE0149086010BD0000C2
:1041E0008000002000BFFEE710B5FFF7F1FFFEF7EB
:1041F000C3FD10BD00BFFEE710B5FEF759FEFFF787
:1042000073F9FDF707FDFEF765FE10BD00B5B1B00F
:10421000442120A8FCF74BF814211BA8FCF747F811
:10422000682101A8FCF743F84FF40070FDF794FDF6
:1042300008B1FCF79FFF012020900004219002208C
:104240002A90032120A8C162012101632421416336
:104250000621C16304210164FEF736F908B1FCF7B9
:1042600089FF0F201B9003201C9000201D904FF40D
:1042700080601E9000201F9004211BA8FDF7C2FF44
:1042800008B1FCF777FF07480190002009904FF034
:104290000060179001A8FDF7ADFD08B1FCF76AFFBB
:1042A00031B000BD010004000D48006840F001007D
:1042B0000B490860002088600846006809490840EA
:1042C000074908608814C8600846006820F4802008
:1042D000086000208861C803034908607047000037
:1042E00000100240FFFFF6EA08ED00E010B586B0CE
:1042F0000446FDF797FCFFF789FFFCF767FEFFF721
:104300009BFDFFF771FFFFF77EFE0120FCF798FB96
:10431000401C18B901E0FCF72DFFFCE7FCF7AAF8F8
:10432000032000214FF48072084BCDE90132CDE922
:10433000031004200346064A00900648FEF704FFD7
:10434000FF20FEF75BFF06B010BD0000C804002090
:10435000C40800205D43000800BFFEE708B52448FC
:10436000006800680021234AC2E902011046FCF7F8
:1043700035FE0020FCF7E2FC01211F48FCF7B2FCEF
:1043800000BF0020FCF76BFC69460020FCF73EFEF6
:1043900000210F20FCF7FFFB184908600846008841
:1043A00000F48040E0B14FF4804200210F20FCF780
:1043B0003EFD00211020FCF7EEFBC0F30904402C69
:1043C000DFDC002221460E48FCF73EFC0C48058845
:1043D00005F488400028D4D1204600F015F8D0E735
:1043E000084A00210F20FCF722FDFCF766FCC8E715
:1043F000200000201000002000D023040400002032
:10440000C80800200090270470B586B0044600203C
:104410000290039004900590264800680290254879
:104420000068401C23490860002514E0224800EB86
:10443000C5000168CDF80D104068CDF811000820C6
:104440008DF80C00059800901C4802A90EC9FCF7D5
:1044500095F8681C05B2E11704EB5171B5EBE10F5B
:10446000E4DBE11704EB5171C910A4EBC101F1B118
:104470002646E01704EB5070C010A4EBC0020E48B3
:1044800000EBC5010DF10D00FBF7F8FE2046E1172A
:1044900004EB5171C910A4EBC101C9B28DF80C1025
:1044A00005980090054802A90EC9FCF767F806B008
:1044B00070BD000008000020C8080020F012002095
:1044C0002DE9F84304460F4615461E464FF00008F6
:1044D000FCF707FD814610204FF09041886222468C
:1044E00039461A48FBF7CAFE184908192A463146C8
:1044F000FBF7C4FE10204FF090418862601982B231
:104500001349124800F028F808B1FFF76BFE6A461D
:10451000002110480068FEF74FFD9DF800000A28B2
:1045200002D16FF0090807E09DF8000010B94FF0C4
:10453000000801E06FF00A0810204FF090418861F8
:104540004846FCF7C7FC4046BDE8F8830814002045
:104550000815002080000020F0B504460D46002715
:10456000264900BF91F85C00012801D10220F0BD6E
:10457000012081F85C0000BF91F85D304E68012B8E
:1045800008D0B6F5827F03D1886808B9042B01D022
:1045900002272BE091F85D00042802D0052081F865
:1045A0005D00002008668C638A87CA870D64A1F8C5
:1045B0004420A1F846201248C864124808650868DB
:1045C000406840F0E000D1F800C0CCF80400086872
:1045D000006800F04000402807D00868006840F0FC
:1045E0004000D1F800C0CCF8000000BF00BF0020A0
:1045F00081F85C0000BF3846B9E7000008160020CB
:10460000A13E0008E13E0008F8B50446206846686F
:1046100020688568C5F3801048B905F0010030B105
:10462000C6F3801018B12046E16C8847F8BDC5F389
:10463000400030B1C6F3C01018B12046216D884744
:10464000F4E7C5F3401030B9C5F3801018B9C5F3CD
:104650000020002858D0C6F34010002854D0C5F3DD
:104660008010F0B194F85D0003280ED0206E40F069
:104670000400206600BF002000902068C068009001
:1046800020688068009000BF0BE000BF0020009011
:104690002068C068009020688068009000BF00BF5C
:1046A000C4E7C5F3401088B1206E40F001002066D9
:1046B00000BF00200090206880680090206800689B
:1046C00020F040002168086000BF00BFC5F3002053
:1046D00058B1206E40F00800206600BF0020009016
:1046E00020688068009000BF00BF206E58B120682D
:1046F000406820F0E00021684860012084F85D00F7
:104700002046FEF725FA91E700BF8FE710B5044673
:104710006D2240F606012E20FCF79DFB3CB140F2D5
:10472000076241F606012E20FCF770FB06E041F21D
:10473000076241F606012E20FCF768FB10BD38B574
:1047400004466B46022200213620FCF74BFA0F2C60
:104750005FD2DFE804F012081B5E5E5E5E24335E0B
:104760005E40474E570000208DF800009DF8010084
:1047700000F0FE008DF801004CE09DF8000000F014
:10478000FC0040F001008DF8000043E09DF80000BF
:1047900000F0FC0040F002008DF800003AE09DF8C7
:1047A000000000F0B30040F048008DF800009DF8D4
:1047B000010040F080008DF801002BE09DF8000022
:1047C00000F0B3008DF800009DF8010000F07F00BC
:1047D0008DF801001EE09DF8010040F002008DF808
:1047E000010017E09DF8010000F0FD008DF80100C8
:1047F00010E09DF8000000F0CF0040F020008DF8A0
:10480000000007E001208DF8000003208DF8010072
:1048100000E000BF00BF6B46012200213620FCF7FC
:1048200024FB0DF10103012211463620FCF71DFB8C
:1048300038BD10B50E20FFF782FF4FF4004206216D
:104840002D20FCF7E3FA0120FBF788FF0120FFF79A
:1048500076FF10BD70B50446A2B204212D20FCF7EE
:10486000D5FA032206212D20FCF7F5FA00220621B5
:104870002D20FCF7F0FA0A212D20FCF78CF90546D3
:10488000284670BD10B5002202212C20FCF7E3FA67
:10489000022211462C20FCF7DEFA10BD02E008C807
:1048A000121F08C1002AFAD170477047002001E0AA
:1048B00001C1121F002AFBD1704710B50020FFF77D
:1048C0003EFF002204213620FCF7A0FA10BD10B5EF
:1048D00003210F20FCF774F9044604F0800004F073
:1048E0004001B0EB410F04D0012203210D20FCF761
:1048F000B2FA10BD00B585B0FEF7AEFA0320002174
:104900004FF48072084BCDE90132CDE903101B2032
:104910000346064A00900648FEF716FCFEF7EEFB3B
:10492000002005B000BD0000C8000020C404002025
:10493000ED4200080148006870470000C4000020F4
:104940000FB47FB50446109D0020009001900290A6
:1049500003900B9808B9099800E00A9800900D9808
:10496000C0B28DF804009DF8042029460DF1050021
:10497000FBF784FC9DE80F0084E80F007FBC5DF826
:1049800014FB70B50446FFF7D5FF051900BFFFF70C
:10499000D1FF401B0028FADD70BD000000000000C0
:1049A0000000010203040005405C0000A05C04005C
:1049B000C06C0800805C0400E03F1E00E07D1E002B
:1049C00007040009080540080910400808054008C8
:1049D0001D0400081D0400081E265626BEBED8BCB5
:1049E00007A9022570889B88401008000A0016005D
:1049F000010006000100020087008D002D001A3121
:104A000052001A339A001A351D011A376B003B31D8
:104A1000BE003B335E013B3596023B3700009859A0
:104A20009859EA518E421E45142E0080EA51F4280E
:104A30003233E03A703DE03AC235842BC23532332E
:104A4000C235C235AE47E03A5038A2305038000087
:104A50000000000000000000EC51B81E85EBA13FF3
:104A60000000000000000000000000000000000046
:104A7000A4703D0AD7A3B03F000000000000000072
:104A8000000001000200010003000100020001001B
:104A90000400010002000100030001000200010007
:104AA00005000100020001000300010002000100F6
:104AB00004000100020001000300010002000100E7
:104AC00006000100020001000300010002000100D5
:104AD00004000100020001000300010002000100C7
:104AE00005000100020001000300010002000100B6
:104AF00004000100020001000300010002000100A7
:104B00000700010002000100030001000200010093
:104B10000400010002000100030001000200010086
:104B20000500010002000100030001000200010075
:104B30000400010002000100030001000200010066
:104B40000600010002000100030001000200010054
:104B50000400010002000100030001000200010046
:104B60000500010002000100030001000200010035
:104B70000400010002000100030001000200010026
:104B800000000000000000000102030406070809FD
:104B90000000000001020304A0860100400D030094
:104BA000801A060000350C0040420F0080841E0071
:104BB00000093D0000127A000024F40000366E0166
:104BC0000048E801006CDC02E84B0008000000200F
:104BD000C80000009C480008B04C0008C800002035
:104BE000B82A0000AC4800080000000000000000E7
:104BF000000000000000000038403840CADE00001D
:104C00000000000000000000080900200000000073
:104C1000050204000909010203003904C000000074
:104C20001F1F1F1F00000000000000000000000008
:104C30000000000000000000000000000000000074
:104C40000000000000000000000000000000000064
:104C5000000000000000316253C4F5A697B988DB5C
:104C6000EA7D4C1F2E000000000000000000000044
:104C70000000000000000000000000000000000034
:104C80000000000000000000000000000000000024
:104C90000000000000000000000000000000000014
:104CA000000000000000000000093D0000000000BE
:040000050800019559
:00000001FF
